:040000000BEF00F012
:100008003382FACF06F0FBCF07F08CED04F068EFEF
:0200180006F0F0
:100600000033322C060C446573697265643E200029
:1006100000000000000041637475616C3E20000022
:10062000000000000000446573697265643E2000AC
:10063000000000000000414443526561643E200018
:1006400000000000000000000000000000000000AA
:10065000000000000000000000000000000000009A
:10066000000000000000000000000000000000008A
:10067000000000000000000000000000000000007A
:10068000000000000000000000000000000000006A
:10069000000000000000000000000000000000005A
:1006A000000000000000526561647920746F2067CB
:1006B0006F0050726F626C656D000000000E236E5B
:1006C00030C024F031C025F0000E226E86EC06F01A
:1006D00047EC06F0000E196E000EE2EC06F02EC09C
:1006E00019F02FC01AF01DEC06F0020EA1EC06F076
:1006F000000EEAEC05F0000E196E0A0EE2EC06F0B0
:100700002450ECEC04F0010E196E0A0EE2EC06F037
:100710002550ECEC04F02950D8B432B019D0FBD7F6
:1007200029A070D0010E236E010EEAEC05F06AD00C
:1007300029A068D0000E236E000EEAEC05F062D00E
:1007400029A060D0000E236E000EEAEC05F05AD00E
:100750002350000AD8B4E4D7010AD8B4E9D7F0D7B7
:10076000000E196E0A0EE2EC06F02450ECEC04F0D8
:10077000010E196E0A0EE2EC06F02550ECEC04F0C6
:1007800082AE03D0800E216E01D0216A2150010972
:1007900037D029B222C024F0C2B2FED7D890C430DC
:1007A000226EC282000E196E0A0EE2EC06F0245090
:1007B000ECEC04F0010E196E0A0EE2EC06F0225089
:1007C000ECEC04F082AE03D0800E216E01D0216AE1
:1007D0002150020915D0000E196E000EE2EC06F051
:1007E000BBEC06F02CC019F02DC01AF01DEC06F081
:1007F00082AE03D0800E216E01D0216A21500509FE
:100800008B6E08D02350000AD8B4AAD7010AD8B4F6
:10081000C0D7E1D7000E296E32907DD7176E17C072
:1008200015F0153A0F0E15168C501518FE0B1518ED
:100830008C6E17C015F0050E166ED8901532162E58
:10084000FCD715468C501518FD0B15188C6E17C06B
:1008500015F0060E166ED8901532162EFCD71546DA
:1008600015468C501518FB0B15188C6E156A17AEB3
:1008700001D0152A1546154615468C501518F70B4C
:1008800015188C6E14B002D08C9801D08C88030E91
:10089000E82EFED78C8A030EE82EFED78C9A510ED6
:1008A000E82EFED700D017B002D08C9001D08C80FB
:1008B00017C015F0D890153215468C501518FD0B41
:1008C00015188C6E17C015F0D8901532D8901532C7
:1008D000154615468C501518FB0B15188C6E17C055
:1008E00015F0D8901532D8901532D890153215469B
:1008F000154615468C501518F70B15188C6E030EFF
:10090000E82EFED78C8A030EE82EFED78C9A510E65
:10091000E82EFED700D012000600E9CF08F0EACF9B
:1009200009F0E1CF0AF0E2CF0BF0D9CF0CF0DACF2B
:100930000DF0F3CF0EF0F4CF0FF0F6CF10F0F7CFAD
:1009400011F0F8CF12F0F5CF13F0F2BAF2A426D0DE
:1009500073EC05F0A00E026E000E016EF8EC06F0CE
:10096000F2942A2A2B2A0A0E2A18D8A403D0000EA1
:100970002A6E3280640E2B18D8A410D082AE02D01A
:10098000010E01D0000EFF0A056E053205328250BD
:1009900005187F0B0518826E000E2B6E13C0F5FF35
:1009A00012C0F8FF11C0F7FF10C0F6FF0FC0F4FF30
:1009B0000EC0F3FF0DC0DAFF0CC0D9FF0BC0E2FF81
:1009C0000AC0E1FF09C0EAFF08C0E9FF07C0FBFF5A
:1009D00006C0FAFF339211001F6E1FC014F0156A93
:1009E000000E176E0A0E166EB2EC05F014501E6E55
:1009F0001FC014F0156A000E176E0A0E166E31EC49
:100A000005F014501F6E1FC014F0156A000E176E0B
:100A10000A0E166EB2EC05F014501D6E1FC014F0D5
:100A2000156A000E176E0A0E166E31EC05F01450A2
:100A30001F6E1FC014F0156A000E176E0A0E166E98
:100A4000B2EC05F014501C6E1C50300F01EC07F096
:100A50001D50300F01EC07F01E50300F01EC07F075
:100A60001200000E196E17AE06D0166C171ED8B005
:100A7000172A010E196E15AE06D0146C151ED8B0CB
:100A8000152A010E191A000E1B6E000E1A6E165052
:100A90001710D8B41CD0010E186E04D0D89016369A
:100AA0001736182A17AEFAD7D8901A361B361650B2
:100AB000145C17501558D8A005D01650145E175066
:100AC000155A1A80D89017321632182EEDD71950B1
:100AD000D8B404D01A6C1B1ED8B01B2A1AC014F04C
:100AE0001BC015F0120030D08150D8B41200010E96
:100AF000276E000E266E81CF28F012008150281834
:100B0000D8A407D0262A0A0E26641200020E276EE9
:100B10001200000E276E12008150D8A41200030E9E
:100B2000276E120028C029F0000E276E000E266ED8
:100B3000000E286E1200000E276E000E266E000EAC
:100B4000286E000E296E12002750000AD8B4CCD7A8
:100B5000010AD8B4D3D7030AD8B4DED7010AD8B46F
:100B6000E1D7E9D7000E196E15AE06D0146C151E2C
:100B7000D8B0152A010E196E17AE04D0166C171EC8
:100B8000D8B0172A16501710D8B418D0010E186E06
:100B900004D0D89016361736182A17AEFAD7165042
:100BA000145C17501558D8A004D01650145E175076
:100BB000155AD89017321632182EF1D71950D8B4CA
:100BC00004D0146C151ED8B0152A14C014F015C02A
:100BD00015F01200206EBBEC06F0000E196E000E30
:100BE000E2EC06F02050200D060EF324196E060EDE
:100BF000F4201A6E1DEC06F0010E196E000EE2ECE8
:100C000006F020501E6E1F6AD8901E361F361E3A00
:100C10001F3AF00E1F161E500F0B1F12F00E1E165D
:100C2000100E1E26000E1F22060E1E24196E060E22
:100C30001F201A6E1DEC06F01200000E1D6E13D060
:100C40001D50010D19C01BF01AC01CF0F3501B26DB
:100C5000F4501C221BC0F6FF1CC0F7FF0800F55023
:100C600001EC07F01D2A1D50010D19C01BF01AC020
:100C70001CF0F3501B26F4501C221BC0F6FF1CC0B6
:100C8000F7FF0800F5500009D8B41200D9D79550E5
:100C9000C00B956EE00E1A6E6A0EE82EFED71A2E65
:100CA000FCD7000E1B6E040E1B6401D00ED01B502F
:100CB000010D010EF324F66E060EF420F76E080007
:100CC000F55008EC07F01B2AEED7BBEC06F012003B
:100CD000326A2B6A2A6A296A286A276A266A1E0EDD
:100CE000F66E0E0EF76E000EF86E00EE2CF010EEA3
:100CF00006F00900F5CFEEFFE550E150FAE1339040
:100D00003392000EF86E00015EEF03F0010EC26E2A
:100D10000E0EC16E010E926E9368000E946EC2822A
:100D20008B68030EA1EC06F0000E8B6E900ED2ECD9
:100D300006F0A00E156E000E146EEFEC06F0F28EAB
:100D40001200156E000E166E11D0000E176E180EE2
:100D5000176401D00AD0000E146E540EE82EFED790
:100D6000142EFCD700D0172AF2D7162A1550165C7D
:100D7000D8B01200EAD7010E08EC07F00D0E196E7C
:100D8000C30EE82EFED7192EFCD700F0020E08EC99
:100D900007F00D0E196EC30EE82EFED7192EFCD7E4
:100DA00000F01200146E14507F0BD56E000ED76E3B
:100DB000000ED66EF29414AE02D0F28A01D0F29AEE
:100DC000D58E12001A6E1950D8A402D0800E01D010
:100DD000C00E196E19501A2408EC07F0120014C046
:100DE00016F015C017F017C0D7FF16C0D6FF1200B7
:100DF00001C003F002C004F004C0D7FF03C0D6FF57
:100E00001200186E010E146E18500EEC04F0120051
:100E1000186E000E146E18500EEC04F01200B2069C
:040E2000A6063232BE
:020000040020DA
:08000000FFFFFFFFFFFFFFFF00
:020000040030CA
:0E000000FF021F1EFF8181FF0FC00FE00F40A7
:00000001FF
