:040000000BEF00F012
:100008003082FACF06F0FBCF07F077ED04F053EF1C
:0200180006F0F0
:100600000033322C060C446573697265643E200029
:1006100000000000000041637475616C3E20000022
:10062000000000000000446573697265643E2000AC
:10063000000000000000414443526561643E200018
:1006400000000000000000000000000000000000AA
:10065000000000000000000000000000000000009A
:10066000000000000000000000000000000000008A
:10067000000000000000000000000000000000007A
:10068000000000000000000000000000000000006A
:10069000000000000000000000000000000000005A
:1006A000000000000000526561647920746F2067CB
:1006B0006F0050726F626C656D000000320E246E28
:1006C000320E216E000E226E010E236E8BEC06F0B0
:1006D00032EC06F0000E196E000ECBEC06F02DC0C9
:1006E00019F02EC01AF008EC06F0020E71EC06F0BC
:1006F000000ED5EC05F0000E196E0A0ECBEC06F0DC
:100700002450D7EC04F0010E196E0A0ECBEC06F063
:100710002150D7EC04F02850D8B42FB019D0FBD713
:1007200028A05CD0010E236E010ED5EC05F056D04A
:1007300028A054D0000E236E000ED5EC05F04ED04C
:1007400028A04CD0000E236E000ED5EC05F046D04C
:100750002350000AD8B4E4D7010AD8B4E9D7F0D7B7
:10076000000E196E0A0ECBEC06F02450D7EC04F004
:10077000010E196E0A0ECBEC06F02150D7EC04F0F6
:10078000010E2AD028B222C024F0C2B2FED7C44043
:10079000E8423F0B226EC282000E196E0A0ECBECAD
:1007A00006F02450D7EC04F0010E196E0A0ECBECC3
:1007B00006F02250D7EC04F0020E0ED0000E196E97
:1007C000000ECBEC06F0A4EC06F02BC019F02CC008
:1007D0001AF008EC06F0050E8B6E08D02350000AC4
:1007E000D8B4BED7010AD8B4CDD7E8D7000E286E4A
:1007F00092D7176E17C015F0153A0F0E15168C50BC
:100800001518FE0B15188C6E17C015F0050E166E18
:10081000D8901532162EFCD715468C501518FD0BA6
:1008200015188C6E17C015F0060E166ED89015327E
:10083000162EFCD7154615468C501518FB0B1518AF
:100840008C6E156A17AE01D0152A15461546154649
:100850008C501518F70B15188C6E14B002D08C98AC
:1008600001D08C88030EE82EFED78C8A030EE82E6A
:10087000FED78C9A510EE82EFED700D017B002D0CA
:100880008C9001D08C8017C015F0D8901532154689
:100890008C501518FD0B15188C6E17C015F0D890DC
:1008A0001532D8901532154615468C501518FB0B8D
:1008B00015188C6E17C015F0D8901532D8901532D7
:1008C000D89015321546154615468C501518F70B5D
:1008D00015188C6E030EE82EFED78C8A030EE82EB8
:1008E000FED78C9A510EE82EFED700D012000600DB
:1008F000E9CF08F0EACF09F0E1CF0AF0E2CF0BF040
:10090000D9CF0CF0DACF0DF0F3CF0EF0F4CF0FF01B
:10091000F6CF10F0F7CF11F0F8CF12F0F5CF13F0BB
:10092000F2BAF2A426D05EEC05F0A00E026E000E24
:10093000016EE1EC06F0F294292A0A0E2918D8A4D7
:1009400004D02A2A000E296E2F800A0E2A18D8A455
:1009500010D082AE02D0010E01D0000EFF0A056E4B
:1009600005320532825005187F0B0518826E000E85
:100970002A6E13C0F5FF12C0F8FF11C0F7FF10C0B8
:10098000F6FF0FC0F4FF0EC0F3FF0DC0DAFF0CC07E
:10099000D9FF0BC0E2FF0AC0E1FF09C0EAFF08C0AF
:1009A000E9FF07C0FBFF06C0FAFF309211001F6E7F
:1009B0001FC014F0156A000E176E0A0E166E9DEC1D
:1009C00005F014501E6E1FC014F0156A000E176E4D
:1009D0000A0E166E1CEC05F014501F6E1FC014F0AA
:1009E000156A000E176E0A0E166E9DEC05F0145077
:1009F0001D6E1FC014F0156A000E176E0A0E166EDB
:100A00001CEC05F014501F6E1FC014F0156A000E88
:100A1000176E0A0E166E9DEC05F014501C6E1C50DD
:100A2000300FEAEC06F01D50300FEAEC06F01E50D5
:100A3000300FEAEC06F01200000E196E17AE06D069
:100A4000166C171ED8B0172A010E196E15AE06D0F7
:100A5000146C151ED8B0152A010E191A000E1B6E43
:100A6000000E1A6E16501710D8B41CD0010E186E56
:100A700004D0D89016361736182A17AEFAD7D89061
:100A80001A361B361650145C17501558D8A005D0CE
:100A90001650145E1750155A1A80D8901732163215
:100AA000182EEDD71950D8B404D01A6C1B1ED8B02C
:100AB0001B2A1AC014F01BC015F0120030D0815050
:100AC000D8B41200010E266E000E256E81CF27F0DD
:100AD000120081502718D8A407D0252A0A0E2564B1
:100AE0001200020E266E1200000E266E12008150B9
:100AF000D8A41200030E266E120027C028F0000EA4
:100B0000266E000E256E000E276E1200000E266E59
:100B1000000E256E000E276E000E286E1200265065
:100B2000000AD8B4CCD7010AD8B4D3D7030AD8B4B2
:100B3000DED7010AD8B4E1D7E9D7000E196E15AE99
:100B400006D0146C151ED8B0152A010E196E17AEFA
:100B500004D0166C171ED8B0172A16501710D8B428
:100B600018D0010E186E04D0D89016361736182AF1
:100B700017AEFAD71650145C17501558D8A004D0E9
:100B80001650145E1750155AD89017321632182E78
:100B9000F1D71950D8B404D0146C151ED8B0152A4A
:100BA00014C014F015C015F01200206EA4EC06F06D
:100BB000000E196E000ECBEC06F02050200D060E34
:100BC000F324196E060EF4201A6E08EC06F0010EDE
:100BD000196E000ECBEC06F020501E6E1F6AD890E6
:100BE0001E361F361E3A1F3AF00E1F161E500F0BF0
:100BF0001F12F00E1E16100E1E26000E1F22060ECD
:100C00001E24196E060E1F201A6E08EC06F0120044
:100C1000000E1D6E13D01D50010D19C01BF01AC01F
:100C20001CF0F3501B26F4501C221BC0F6FF1CC006
:100C3000F7FF0800F550EAEC06F01D2A1D50010DE3
:100C400019C01BF01AC01CF0F3501B26F4501C22D4
:100C50001BC0F6FF1CC0F7FF0800F5500009D8B410
:100C60001200D9D79550C00B956EE00E1A6E6A0E21
:100C7000E82EFED71A2EFCD7000E1B6E040E1B6446
:100C800001D00ED01B50010D010EF324F66E060E9E
:100C9000F420F76E0800F550F1EC06F01B2AEED7B1
:100CA000A4EC06F012002F6A2A6A296A286A276AC9
:100CB000266A256AF00EF66E0D0EF76E000EF86EBF
:100CC00000EE2BF010EE04F00900F5CFEEFFE5503A
:100CD000E150FAE130903092000EF86E00015EEFC4
:100CE00003F0156E000E166E11D0000E176E180E62
:100CF000176401D00AD0000E146E540EE82EFED7F1
:100D0000142EFCD700D0172AF2D7162A1550165CDD
:100D1000D8B01200EAD7010EC26E0E0EC16E9368F3
:100D2000000E946EC2828B68030E71EC06F0000E0A
:100D30008B6E900EBBEC06F0A00E156E000E146EBE
:100D4000D8EC06F0F28E1200010EF1EC06F00D0E5A
:100D5000196EC30EE82EFED7192EFCD700F0020E36
:100D6000F1EC06F00D0E196EC30EE82EFED7192E0B
:100D7000FCD700F01200146E14507F0BD56E000EDD
:100D8000D76E000ED66EF29414AE02D0F28A01D065
:100D9000F29AD58E12001A6E1950D8A402D0800E85
:100DA00001D0C00E196E19501A24F1EC06F0120091
:100DB00014C016F015C017F017C0D7FF16C0D6FF25
:100DC000120001C003F002C004F004C0D7FF03C04A
:100DD000D6FF1200186E010E146E1850F9EC03F0D5
:100DE0001200186E000E146E1850F9EC03F0120089
:040DF000B206A6069B
:020000040020DA
:08000000FFFFFFFFFFFFFFFF00
:020000040030CA
:0E000000FF021F1EFF8181FF0FC00FE00F40A7
:00000001FF
