:040000000BEF00F012
:100008003782FACF06F0FBCF07F093ED04F06FEFDD
:0200180006F0F0
:100600000033322C060C446573697265643E200029
:1006100000000000000041637475616C3E20000022
:10062000000000000000446573697265643E2000AC
:10063000000000000000414443526561643E200018
:1006400000000000000000000000000000000000AA
:10065000000000000000000000000000000000009A
:10066000000000000000000000000000000000008A
:10067000000000000000000000000000000000007A
:10068000000000000000000000000000000000006A
:10069000000000000000000000000000000000005A
:1006A000000000000000526561647920746F2067CB
:1006B0006F0050726F626C656D000000320E226E2A
:1006C000320E236E000E246E010E256E29C026F018
:1006D0002AC027F02BC028F0A7EC06F04EEC06F05D
:1006E000000E196E000EE7EC06F02EC019F02FC0B8
:1006F0001AF024EC06F0020E8DEC06F0000EF1EC80
:1007000005F0000E196E0A0EE7EC06F02650F3EC29
:1007100004F0010E196E0A0EE7EC06F02750F3EC18
:1007200004F03350D8B436B019D0FBD733A071D011
:10073000010E256E010EF1EC05F06BD033A069D0EF
:10074000000E256E000EF1EC05F063D033A061D0F1
:10075000000E256E000EF1EC05F05BD02550000A6E
:10076000D8B4E4D7010AD8B4E9D7F0D7000E196E8F
:100770000A0EE7EC06F02650F3EC04F0010E196EB9
:100780000A0EE7EC06F02750F3EC04F082AE03D03B
:10079000800E216E01D0216A2150010938D033B278
:1007A00028C026F0C2B2FED7C440E8423F0B286EF4
:1007B000C282000E196E0A0EE7EC06F02650F3EC2A
:1007C00004F0010E196E0A0EE7EC06F02850F3EC67
:1007D00004F082AE03D0800E216E01D0216A215038
:1007E000020915D0000E196E000EE7EC06F0C0EC01
:1007F00006F02CC019F02DC01AF024EC06F082AEE1
:1008000003D0800E216E01D0216A215005098B6E24
:1008100008D02550000AD8B4A9D7010AD8B4BFD748
:10082000E1D7000E336E36907CD7176E17C015F0E7
:10083000153A0F0E15168C501518FE0B15188C6EE8
:1008400017C015F0050E166ED8901532162EFCD76F
:1008500015468C501518FD0B15188C6E17C015F029
:10086000060E166ED8901532162EFCD71546154674
:100870008C501518FB0B15188C6E156A17AE01D02D
:10088000152A1546154615468C501518F70B1518E0
:100890008C6E14B002D08C9801D08C88030EE82E98
:1008A000FED78C8A030EE82EFED78C9A510EE82EC6
:1008B000FED700D017B002D08C9001D08C8017C02A
:1008C00015F0D890153215468C501518FD0B1518DB
:1008D0008C6E17C015F0D8901532D8901532154689
:1008E00015468C501518FB0B15188C6E17C015F09B
:1008F000D8901532D8901532D89015321546154635
:1009000015468C501518F70B15188C6E030EE82E33
:10091000FED78C8A030EE82EFED78C9A510EE82E55
:10092000FED700D012000600E9CF08F0EACF09F0A8
:10093000E1CF0AF0E2CF0BF0D9CF0CF0DACF0DF017
:10094000F3CF0EF0F4CF0FF0F6CF10F0F7CF11F099
:10095000F8CF12F0F5CF13F0F2BAF2A426D07AEC69
:1009600005F0A00E026E000E016EFDEC06F0F29492
:10097000342A352A0A0E3418D8A403D0000E346E57
:100980003680640E3518D8A410D082AE02D0010E85
:1009900001D0000EFF0A056E05320532825005189F
:1009A0007F0B0518826E000E356E13C0F5FF12C066
:1009B000F8FF11C0F7FF10C0F6FF0FC0F4FF0EC024
:1009C000F3FF0DC0DAFF0CC0D9FF0BC0E2FF0AC075
:1009D000E1FF09C0EAFF08C0E9FF07C0FBFF06C04E
:1009E000FAFF379211001F6E1FC014F0156A000E37
:1009F000176E0A0E166EB9EC05F014501E6E1FC06D
:100A000014F0156A000E176E0A0E166E38EC05F01B
:100A100014501F6E1FC014F0156A000E176E0A0ED8
:100A2000166EB9EC05F014501D6E1FC014F0156A57
:100A3000000E176E0A0E166E38EC05F014501F6E7D
:100A40001FC014F0156A000E176E0A0E166EB9EC70
:100A500005F014501C6E1C50300F06EC07F01D50B2
:100A6000300F06EC07F01E50300F06EC07F01200B6
:100A7000000E196E17AE06D0166C171ED8B0172AC6
:100A8000010E196E15AE06D0146C151ED8B0152ABD
:100A9000010E191A000E1B6E000E1A6E165017105A
:100AA000D8B41CD0010E186E04D0D8901636173664
:100AB000182A17AEFAD7D8901A361B361650145C7F
:100AC00017501558D8A005D01650145E1750155A57
:100AD0001A80D89017321632182EEDD71950D8B484
:100AE00004D01A6C1B1ED8B01B2A1AC014F01BC0ED
:100AF00015F0120030D08150D8B41200010E316EC2
:100B0000000E306E81CF32F0120081503218D8A41E
:100B100007D0302A0A0E30641200020E316E120025
:100B2000000E316E12008150D8A41200030E316EF7
:100B3000120032C033F0000E316E000E306E000E27
:100B4000326E1200000E316E000E306E000E326EEC
:100B5000000E336E12003150000AD8B4CCD7010A0F
:100B6000D8B4D3D7030AD8B4DED7010AD8B4E1D7B2
:100B7000E9D7000E196E15AE06D0146C151ED8B04C
:100B8000152A010E196E17AE04D0166C171ED8B0B8
:100B9000172A16501710D8B418D0010E186E04D0AA
:100BA000D89016361736182A17AEFAD71650145C96
:100BB00017501558D8A004D01650145E1750155A67
:100BC000D89017321632182EF1D71950D8B404D055
:100BD000146C151ED8B0152A14C014F015C015F0E9
:100BE0001200206EC0EC06F0000E196E000EE7EC4D
:100BF00006F02050200D060EF324196E060EF42088
:100C00001A6E24EC06F0010E196E000EE7EC06F0E9
:100C100020501E6E1F6AD8901E361F361E3A1F3A8D
:100C2000F00E1F161E500F0B1F12F00E1E16100E88
:100C30001E26000E1F22060E1E24196E060E1F20F1
:100C40001A6E24EC06F01200000E1D6E13D01D501B
:100C5000010D19C01BF01AC01CF0F3501B26F450F4
:100C60001C221BC0F6FF1CC0F7FF0800F55006EC65
:100C700007F01D2A1D50010D19C01BF01AC01CF0F1
:100C8000F3501B26F4501C221BC0F6FF1CC0F7FFBC
:100C90000800F5500009D8B41200D9D79550C00B00
:100CA000956EE00E1A6E6A0EE82EFED71A2EFCD74D
:100CB000000E1B6E040E1B6401D00ED01B50010DE4
:100CC000010EF324F66E060EF420F76E0800F550C0
:100CD0000DEC07F01B2AEED7C0EC06F01200366AC6
:100CE000356A346A336A326A316A306A280EF66EBF
:100CF0000E0EF76E000EF86E00EE29F010EE07F003
:100D00000900F5CFEEFFE550E150FAE13790379258
:100D1000000EF86E00015EEF03F0156E000E166E09
:100D200011D0000E176E180E176401D00AD0000EF5
:100D3000146E540EE82EFED7142EFCD700D0172ABE
:100D4000F2D7162A1550165CD8B01200EAD7010E59
:100D5000C26E0E0EC16E9368000E946EC2828B68D6
:100D6000030E8DEC06F0000E8B6E900ED7EC06F0A5
:100D7000A00E156E000E146EF4EC06F0F28E12004A
:100D8000010E0DEC07F00D0E196EC30EE82EFED706
:100D9000192EFCD700F0020E0DEC07F00D0E196EA7
:100DA000C30EE82EFED7192EFCD700F01200146EE9
:100DB00014507F0BD56E000ED76E000ED66EF294D7
:100DC00014AE02D0F28A01D0F29AD58E12001A6EB9
:100DD0001950D8A402D0800E01D0C00E196E19503F
:100DE0001A240DEC07F0120014C016F015C017F00D
:100DF00017C0D7FF16C0D6FF120001C003F002C013
:100E000004F004C0D7FF03C0D6FF1200186E010E15
:100E1000146E185015EC04F01200186E000E146ECB
:100E2000185015EC04F01200323200B206A606008B
:020000040020DA
:08000000FFFFFFFFFFFFFFFF00
:020000040030CA
:0E000000FF021F1EFF8181FF0FC00FE00F40A7
:00000001FF
